{
  "_format": "hh-sol-artifact-1",
  "contractName": "MockERC20",
  "sourceName": "src/MockERC20.sol",
  "abi": [
    {
      "inputs": [
        {
          "internalType": "string",
          "name": "name",
          "type": "string"
        },
        {
          "internalType": "string",
          "name": "symbol",
          "type": "string"
        },
        {
          "internalType": "uint8",
          "name": "decimals_",
          "type": "uint8"
        }
      ],
      "stateMutability": "nonpayable",
      "type": "constructor"
    },
    {
      "inputs": [
        {
          "internalType": "address",
          "name": "spender",
          "type": "address"
        },
        {
          "internalType": "uint256",
          "name": "allowance",
          "type": "uint256"
        },
        {
          "internalType": "uint256",
          "name": "needed",
          "type": "uint256"
        }
      ],
      "name": "ERC20InsufficientAllowance",
      "type": "error"
    },
    {
      "inputs": [
        {
          "internalType": "address",
          "name": "sender",
          "type": "address"
        },
        {
          "internalType": "uint256",
          "name": "balance",
          "type": "uint256"
        },
        {
          "internalType": "uint256",
          "name": "needed",
          "type": "uint256"
        }
      ],
      "name": "ERC20InsufficientBalance",
      "type": "error"
    },
    {
      "inputs": [
        {
          "internalType": "address",
          "name": "approver",
          "type": "address"
        }
      ],
      "name": "ERC20InvalidApprover",
      "type": "error"
    },
    {
      "inputs": [
        {
          "internalType": "address",
          "name": "receiver",
          "type": "address"
        }
      ],
      "name": "ERC20InvalidReceiver",
      "type": "error"
    },
    {
      "inputs": [
        {
          "internalType": "address",
          "name": "sender",
          "type": "address"
        }
      ],
      "name": "ERC20InvalidSender",
      "type": "error"
    },
    {
      "inputs": [
        {
          "internalType": "address",
          "name": "spender",
          "type": "address"
        }
      ],
      "name": "ERC20InvalidSpender",
      "type": "error"
    },
    {
      "anonymous": false,
      "inputs": [
        {
          "indexed": true,
          "internalType": "address",
          "name": "owner",
          "type": "address"
        },
        {
          "indexed": true,
          "internalType": "address",
          "name": "spender",
          "type": "address"
        },
        {
          "indexed": false,
          "internalType": "uint256",
          "name": "value",
          "type": "uint256"
        }
      ],
      "name": "Approval",
      "type": "event"
    },
    {
      "anonymous": false,
      "inputs": [
        {
          "indexed": true,
          "internalType": "address",
          "name": "from",
          "type": "address"
        },
        {
          "indexed": true,
          "internalType": "address",
          "name": "to",
          "type": "address"
        },
        {
          "indexed": false,
          "internalType": "uint256",
          "name": "value",
          "type": "uint256"
        }
      ],
      "name": "Transfer",
      "type": "event"
    },
    {
      "inputs": [
        {
          "internalType": "address",
          "name": "owner",
          "type": "address"
        },
        {
          "internalType": "address",
          "name": "spender",
          "type": "address"
        }
      ],
      "name": "allowance",
      "outputs": [
        {
          "internalType": "uint256",
          "name": "",
          "type": "uint256"
        }
      ],
      "stateMutability": "view",
      "type": "function"
    },
    {
      "inputs": [
        {
          "internalType": "address",
          "name": "spender",
          "type": "address"
        },
        {
          "internalType": "uint256",
          "name": "value",
          "type": "uint256"
        }
      ],
      "name": "approve",
      "outputs": [
        {
          "internalType": "bool",
          "name": "",
          "type": "bool"
        }
      ],
      "stateMutability": "nonpayable",
      "type": "function"
    },
    {
      "inputs": [
        {
          "internalType": "address",
          "name": "account",
          "type": "address"
        }
      ],
      "name": "balanceOf",
      "outputs": [
        {
          "internalType": "uint256",
          "name": "",
          "type": "uint256"
        }
      ],
      "stateMutability": "view",
      "type": "function"
    },
    {
      "inputs": [],
      "name": "decimals",
      "outputs": [
        {
          "internalType": "uint8",
          "name": "",
          "type": "uint8"
        }
      ],
      "stateMutability": "view",
      "type": "function"
    },
    {
      "inputs": [
        {
          "internalType": "uint256",
          "name": "amount",
          "type": "uint256"
        }
      ],
      "name": "faucet",
      "outputs": [],
      "stateMutability": "nonpayable",
      "type": "function"
    },
    {
      "inputs": [
        {
          "internalType": "address",
          "name": "to",
          "type": "address"
        },
        {
          "internalType": "uint256",
          "name": "amount",
          "type": "uint256"
        }
      ],
      "name": "mint",
      "outputs": [],
      "stateMutability": "nonpayable",
      "type": "function"
    },
    {
      "inputs": [],
      "name": "name",
      "outputs": [
        {
          "internalType": "string",
          "name": "",
          "type": "string"
        }
      ],
      "stateMutability": "view",
      "type": "function"
    },
    {
      "inputs": [],
      "name": "symbol",
      "outputs": [
        {
          "internalType": "string",
          "name": "",
          "type": "string"
        }
      ],
      "stateMutability": "view",
      "type": "function"
    },
    {
      "inputs": [],
      "name": "totalSupply",
      "outputs": [
        {
          "internalType": "uint256",
          "name": "",
          "type": "uint256"
        }
      ],
      "stateMutability": "view",
      "type": "function"
    },
    {
      "inputs": [
        {
          "internalType": "address",
          "name": "to",
          "type": "address"
        },
        {
          "internalType": "uint256",
          "name": "value",
          "type": "uint256"
        }
      ],
      "name": "transfer",
      "outputs": [
        {
          "internalType": "bool",
          "name": "",
          "type": "bool"
        }
      ],
      "stateMutability": "nonpayable",
      "type": "function"
    },
    {
      "inputs": [
        {
          "internalType": "address",
          "name": "from",
          "type": "address"
        },
        {
          "internalType": "address",
          "name": "to",
          "type": "address"
        },
        {
          "internalType": "uint256",
          "name": "value",
          "type": "uint256"
        }
      ],
      "name": "transferFrom",
      "outputs": [
        {
          "internalType": "bool",
          "name": "",
          "type": "bool"
        }
      ],
      "stateMutability": "nonpayable",
      "type": "function"
    }
  ],
  "bytecode": "0x60a06040523480156200001157600080fd5b5060405162000b1138038062000b1183398101604081905262000034916200012a565b828260036200004483826200023e565b5060046200005382826200023e565b50505060ff16608052506200030a9050565b634e487b7160e01b600052604160045260246000fd5b600082601f8301126200008d57600080fd5b81516001600160401b0380821115620000aa57620000aa62000065565b604051601f8301601f19908116603f01168101908282118183101715620000d557620000d562000065565b81604052838152602092508683858801011115620000f257600080fd5b600091505b83821015620001165785820183015181830184015290820190620000f7565b600093810190920192909252949350505050565b6000806000606084860312156200014057600080fd5b83516001600160401b03808211156200015857600080fd5b62000166878388016200007b565b945060208601519150808211156200017d57600080fd5b506200018c868287016200007b565b925050604084015160ff81168114620001a457600080fd5b809150509250925092565b600181811c90821680620001c457607f821691505b602082108103620001e557634e487b7160e01b600052602260045260246000fd5b50919050565b601f8211156200023957600081815260208120601f850160051c81016020861015620002145750805b601f850160051c820191505b81811015620002355782815560010162000220565b5050505b505050565b81516001600160401b038111156200025a576200025a62000065565b62000272816200026b8454620001af565b84620001eb565b602080601f831160018114620002aa5760008415620002915750858301515b600019600386901b1c1916600185901b17855562000235565b600085815260208120601f198616915b82811015620002db57888601518255948401946001909101908401620002ba565b5085821015620002fa5787850151600019600388901b60f8161c191681555b5050505050600190811b01905550565b6080516107eb62000326600039600061011b01526107eb6000f3fe608060405234801561001057600080fd5b50600436106100a95760003560e01c806340c10f191161007157806340c10f1914610145578063579158971461015a57806370a082311461016d57806395d89b4114610196578063a9059cbb1461019e578063dd62ed3e146101b157600080fd5b806306fdde03146100ae578063095ea7b3146100cc57806318160ddd146100ef57806323b872dd14610101578063313ce56714610114575b600080fd5b6100b66101ea565b6040516100c3919061061c565b60405180910390f35b6100df6100da366004610686565b61027c565b60405190151581526020016100c3565b6002545b6040519081526020016100c3565b6100df61010f3660046106b0565b610296565b60405160ff7f00000000000000000000000000000000000000000000000000000000000000001681526020016100c3565b610158610153366004610686565b6102ba565b005b6101586101683660046106ec565b6102c8565b6100f361017b366004610705565b6001600160a01b031660009081526020819052604090205490565b6100b66102d5565b6100df6101ac366004610686565b6102e4565b6100f36101bf366004610727565b6001600160a01b03918216600090815260016020908152604080832093909416825291909152205490565b6060600380546101f99061075a565b80601f01602080910402602001604051908101604052809291908181526020018280546102259061075a565b80156102725780601f1061024757610100808354040283529160200191610272565b820191906000526020600020905b81548152906001019060200180831161025557829003601f168201915b5050505050905090565b60003361028a8185856102f2565b60019150505b92915050565b6000336102a4858285610304565b6102af858585610388565b506001949350505050565b6102c482826103e7565b5050565b6102d233826103e7565b50565b6060600480546101f99061075a565b60003361028a818585610388565b6102ff838383600161041d565b505050565b6001600160a01b03838116600090815260016020908152604080832093861683529290522054600019811015610382578181101561037357604051637dc7a0d960e11b81526001600160a01b038416600482015260248101829052604481018390526064015b60405180910390fd5b6103828484848403600061041d565b50505050565b6001600160a01b0383166103b257604051634b637e8f60e11b81526000600482015260240161036a565b6001600160a01b0382166103dc5760405163ec442f0560e01b81526000600482015260240161036a565b6102ff8383836104f2565b6001600160a01b0382166104115760405163ec442f0560e01b81526000600482015260240161036a565b6102c4600083836104f2565b6001600160a01b0384166104475760405163e602df0560e01b81526000600482015260240161036a565b6001600160a01b03831661047157604051634a1406b160e11b81526000600482015260240161036a565b6001600160a01b038085166000908152600160209081526040808320938716835292905220829055801561038257826001600160a01b0316846001600160a01b03167f8c5be1e5ebec7d5bd14f71427d1e84f3dd0314c0f7b2291e5b200ac8c7c3b925846040516104e491815260200190565b60405180910390a350505050565b6001600160a01b03831661051d5780600260008282546105129190610794565b9091555061058f9050565b6001600160a01b038316600090815260208190526040902054818110156105705760405163391434e360e21b81526001600160a01b0385166004820152602481018290526044810183905260640161036a565b6001600160a01b03841660009081526020819052604090209082900390555b6001600160a01b0382166105ab576002805482900390556105ca565b6001600160a01b03821660009081526020819052604090208054820190555b816001600160a01b0316836001600160a01b03167fddf252ad1be2c89b69c2b068fc378daa952ba7f163c4a11628f55a4df523b3ef8360405161060f91815260200190565b60405180910390a3505050565b600060208083528351808285015260005b818110156106495785810183015185820160400152820161062d565b506000604082860101526040601f19601f8301168501019250505092915050565b80356001600160a01b038116811461068157600080fd5b919050565b6000806040838503121561069957600080fd5b6106a28361066a565b946020939093013593505050565b6000806000606084860312156106c557600080fd5b6106ce8461066a565b92506106dc6020850161066a565b9150604084013590509250925092565b6000602082840312156106fe57600080fd5b5035919050565b60006020828403121561071757600080fd5b6107208261066a565b9392505050565b6000806040838503121561073a57600080fd5b6107438361066a565b91506107516020840161066a565b90509250929050565b600181811c9082168061076e57607f821691505b60208210810361078e57634e487b7160e01b600052602260045260246000fd5b50919050565b8082018082111561029057634e487b7160e01b600052601160045260246000fdfea2646970667358221220634a56e47c110d94847f8b2481481982754560a8329009c17aa726e091a2594964736f6c63430008140033",
  "linkReferences": {},
  "deployedLinkReferences": {}
}