{"src/KeeperHubCredits.sol":{"KeeperHubCredits":{"abi":[{"inputs":[{"internalType":"address","name":"_ethUsdPriceFeed","type":"address"},{"internalType":"address","name":"_usdc","type":"address"},{"internalType":"address","name":"_usdt","type":"address"},{"internalType":"address","name":"_usds","type":"address"},{"internalType":"address","name":"_initialAdmin","type":"address"}],"stateMutability":"nonpayable","type":"constructor"},{"inputs":[],"name":"AccessControlBadConfirmation","type":"error"},{"inputs":[{"internalType":"address","name":"account","type":"address"},{"internalType":"bytes32","name":"neededRole","type":"bytes32"}],"name":"AccessControlUnauthorizedAccount","type":"error"},{"inputs":[],"name":"InsufficientPayment","type":"error"},{"inputs":[],"name":"InvalidPrice","type":"error"},{"inputs":[],"name":"InvalidToken","type":"error"},{"inputs":[],"name":"ReentrancyGuardReentrantCall","type":"error"},{"inputs":[{"internalType":"address","name":"token","type":"address"}],"name":"SafeERC20FailedOperation","type":"error"},{"inputs":[],"name":"StalePrice","type":"error"},{"inputs":[],"name":"WithdrawFailed","type":"error"},{"anonymous":false,"inputs":[{"indexed":true,"internalType":"address","name":"sender","type":"address"},{"indexed":true,"internalType":"bytes32","name":"orgId","type":"bytes32"},{"indexed":false,"internalType":"address","name":"token","type":"address"},{"indexed":false,"internalType":"uint256","name":"amountPaid","type":"uint256"},{"indexed":false,"internalType":"uint256","name":"usdValue","type":"uint256"},{"indexed":false,"internalType":"uint256","name":"creditsIssued","type":"uint256"}],"name":"CreditsDeposited","type":"event"},{"anonymous":false,"inputs":[{"indexed":true,"internalType":"address","name":"to","type":"address"},{"indexed":false,"internalType":"address","name":"token","type":"address"},{"indexed":false,"internalType":"uint256","name":"amount","type":"uint256"}],"name":"FundsWithdrawn","type":"event"},{"anonymous":false,"inputs":[{"indexed":true,"internalType":"bytes32","name":"role","type":"bytes32"},{"indexed":true,"internalType":"bytes32","name":"previousAdminRole","type":"bytes32"},{"indexed":true,"internalType":"bytes32","name":"newAdminRole","type":"bytes32"}],"name":"RoleAdminChanged","type":"event"},{"anonymous":false,"inputs":[{"indexed":true,"internalType":"bytes32","name":"role","type":"bytes32"},{"indexed":true,"internalType":"address","name":"account","type":"address"},{"indexed":true,"internalType":"address","name":"sender","type":"address"}],"name":"RoleGranted","type":"event"},{"anonymous":false,"inputs":[{"indexed":true,"internalType":"bytes32","name":"role","type":"bytes32"},{"indexed":true,"internalType":"address","name":"account","type":"address"},{"indexed":true,"internalType":"address","name":"sender","type":"address"}],"name":"RoleRevoked","type":"event"},{"inputs":[],"name":"ADMIN_ROLE","outputs":[{"internalType":"bytes32","name":"","type":"bytes32"}],"stateMutability":"view","type":"function"},{"inputs":[],"name":"BONUS_PERCENT_1","outputs":[{"internalType":"uint256","name":"","type":"uint256"}],"stateMutability":"view","type":"function"},{"inputs":[],"name":"BONUS_PERCENT_2","outputs":[{"internalType":"uint256","name":"","type":"uint256"}],"stateMutability":"view","type":"function"},{"inputs":[],"name":"BONUS_THRESHOLD_1","outputs":[{"internalType":"uint256","name":"","type":"uint256"}],"stateMutability":"view","type":"function"},{"inputs":[],"name":"BONUS_THRESHOLD_2","outputs":[{"internalType":"uint256","name":"","type":"uint256"}],"stateMutability":"view","type":"function"},{"inputs":[],"name":"CREDITS_PER_DOLLAR","outputs":[{"internalType":"uint256","name":"","type":"uint256"}],"stateMutability":"view","type":"function"},{"inputs":[],"name":"DEFAULT_ADMIN_ROLE","outputs":[{"internalType":"bytes32","name":"","type":"bytes32"}],"stateMutability":"view","type":"function"},{"inputs":[],"name":"PRICE_STALENESS_THRESHOLD","outputs":[{"internalType":"uint256","name":"","type":"uint256"}],"stateMutability":"view","type":"function"},{"inputs":[{"internalType":"address","name":"admin","type":"address"}],"name":"addAdmin","outputs":[],"stateMutability":"nonpayable","type":"function"},{"inputs":[{"internalType":"uint256","name":"usdAmount","type":"uint256"}],"name":"calculateCredits","outputs":[{"internalType":"uint256","name":"","type":"uint256"}],"stateMutability":"pure","type":"function"},{"inputs":[{"internalType":"bytes32","name":"orgId","type":"bytes32"}],"name":"depositETH","outputs":[],"stateMutability":"payable","type":"function"},{"inputs":[{"internalType":"bytes32","name":"orgId","type":"bytes32"},{"internalType":"address","name":"token","type":"address"},{"internalType":"uint256","name":"amount","type":"uint256"}],"name":"depositStable","outputs":[],"stateMutability":"nonpayable","type":"function"},{"inputs":[],"name":"ethUsdPriceFeed","outputs":[{"internalType":"contract AggregatorV3Interface","name":"","type":"address"}],"stateMutability":"view","type":"function"},{"inputs":[],"name":"getEthPrice","outputs":[{"internalType":"uint256","name":"","type":"uint256"}],"stateMutability":"view","type":"function"},{"inputs":[{"internalType":"bytes32","name":"role","type":"bytes32"}],"name":"getRoleAdmin","outputs":[{"internalType":"bytes32","name":"","type":"bytes32"}],"stateMutability":"view","type":"function"},{"inputs":[{"internalType":"bytes32","name":"role","type":"bytes32"},{"internalType":"address","name":"account","type":"address"}],"name":"grantRole","outputs":[],"stateMutability":"nonpayable","type":"function"},{"inputs":[{"internalType":"bytes32","name":"role","type":"bytes32"},{"internalType":"address","name":"account","type":"address"}],"name":"hasRole","outputs":[{"internalType":"bool","name":"","type":"bool"}],"stateMutability":"view","type":"function"},{"inputs":[{"internalType":"address","name":"admin","type":"address"}],"name":"removeAdmin","outputs":[],"stateMutability":"nonpayable","type":"function"},{"inputs":[{"internalType":"bytes32","name":"role","type":"bytes32"},{"internalType":"address","name":"callerConfirmation","type":"address"}],"name":"renounceRole","outputs":[],"stateMutability":"nonpayable","type":"function"},{"inputs":[{"internalType":"bytes32","name":"role","type":"bytes32"},{"internalType":"address","name":"account","type":"address"}],"name":"revokeRole","outputs":[],"stateMutability":"nonpayable","type":"function"},{"inputs":[{"internalType":"bytes4","name":"interfaceId","type":"bytes4"}],"name":"supportsInterface","outputs":[{"internalType":"bool","name":"","type":"bool"}],"stateMutability":"view","type":"function"},{"inputs":[{"internalType":"uint256","name":"usdAmount","type":"uint256"}],"name":"usdToEth","outputs":[{"internalType":"uint256","name":"","type":"uint256"}],"stateMutability":"view","type":"function"},{"inputs":[],"name":"usdc","outputs":[{"internalType":"contract IERC20","name":"","type":"address"}],"stateMutability":"view","type":"function"},{"inputs":[],"name":"usds","outputs":[{"internalType":"contract IERC20","name":"","type":"address"}],"stateMutability":"view","type":"function"},{"inputs":[],"name":"usdt","outputs":[{"internalType":"contract IERC20","name":"","type":"address"}],"stateMutability":"view","type":"function"},{"inputs":[{"internalType":"address","name":"to","type":"address"},{"internalType":"uint256","name":"amount","type":"uint256"}],"name":"withdrawETH","outputs":[],"stateMutability":"nonpayable","type":"function"},{"inputs":[{"internalType":"address","name":"to","type":"address"},{"internalType":"address","name":"token","type":"address"},{"internalType":"uint256","name":"amount","type":"uint256"}],"name":"withdrawTokens","outputs":[],"stateMutability":"nonpayable","type":"function"},{"stateMutability":"payable","type":"receive"}],"evm":{"bytecode":{"linkReferences":{},"object":"6101006040523480156200001257600080fd5b506040516200133a3803806200133a83398101604081905262000035916200016a565b600180556001600160a01b0380861660805284811660a05283811660c052821660e052620000656000826200009e565b50620000927fa49807205ce4d355092ef5a8a18f56e8913cf4a201fbe287825b095693c21775826200009e565b505050505050620001da565b6000828152602081815260408083206001600160a01b038516845290915281205460ff1662000143576000838152602081815260408083206001600160a01b03861684529091529020805460ff19166001179055620000fa3390565b6001600160a01b0316826001600160a01b0316847f2f8788117e7eff1d82e926ec794901d17c78024a50270940304540a733656f0d60405160405180910390a450600162000147565b5060005b92915050565b80516001600160a01b03811681146200016557600080fd5b919050565b600080600080600060a086880312156200018357600080fd5b6200018e866200014d565b94506200019e602087016200014d565b9350620001ae604087016200014d565b9250620001be606087016200014d565b9150620001ce608087016200014d565b90509295509295909350565b60805160a05160c05160e051611103620002376000396000818161039c015281816109a10152610d8e01526000818161027301526109630152600081816102df0152610926015260008181610328015261076b01526111036000f3fe6080604052600436106101a05760003560e01c806367c9b017116100ec578063ba69c2671161008a578063d68d9d4e11610064578063d68d9d4e146104fa578063de805e761461050d578063e77d9e1414610522578063f25b9caa1461053757600080fd5b8063ba69c267146104a2578063bcecf667146104ba578063d547741f146104da57600080fd5b80637e4008e7116100c65780637e4008e71461043557806391d148541461044d5780639e9c617b1461046d578063a217fddf1461048d57600080fd5b806367c9b017146103de57806370480275146103f357806375b238fc1461041357600080fd5b80633e413bee116101595780634652cb90116101335780634652cb901461034a5780634782f7791461036a5780634cf282fb1461038a5780635e35359e146103be57600080fd5b80633e413bee146102cd57806340d138251461030157806342f6fb291461031657600080fd5b806301ffc9a7146101ac5780631785f53c146101e1578063248a9ca3146102035780632f2ff15d146102415780632f48ab7d1461026157806336568abe146102ad57600080fd5b366101a757005b600080fd5b3480156101b857600080fd5b506101cc6101c7366004610eb0565b61054e565b60405190151581526020015b60405180910390f35b3480156101ed57600080fd5b506102016101fc366004610ef6565b610585565b005b34801561020f57600080fd5b5061023361021e366004610f11565b60009081526020819052604090206001015490565b6040519081526020016101d8565b34801561024d57600080fd5b5061020161025c366004610f2a565b6105ac565b34801561026d57600080fd5b506102957f000000000000000000000000000000000000000000000000000000000000000081565b6040516001600160a01b0390911681526020016101d8565b3480156102b957600080fd5b506102016102c8366004610f2a565b6105d7565b3480156102d957600080fd5b506102957f000000000000000000000000000000000000000000000000000000000000000081565b34801561030d57600080fd5b50610233606481565b34801561032257600080fd5b506102957f000000000000000000000000000000000000000000000000000000000000000081565b34801561035657600080fd5b50610233610365366004610f11565b61060f565b34801561037657600080fd5b50610201610385366004610f56565b61061a565b34801561039657600080fd5b506102957f000000000000000000000000000000000000000000000000000000000000000081565b3480156103ca57600080fd5b506102016103d9366004610f80565b6106f2565b3480156103ea57600080fd5b50610233610761565b3480156103ff57600080fd5b5061020161040e366004610ef6565b6108af565b34801561041f57600080fd5b506102336000805160206110ae83398151915281565b34801561044157600080fd5b50610233631dcd650081565b34801561045957600080fd5b506101cc610468366004610f2a565b6108d2565b34801561047957600080fd5b50610201610488366004610fbc565b6108fb565b34801561049957600080fd5b50610233600081565b3480156104ae57600080fd5b506102336305f5e10081565b3480156104c657600080fd5b506102336104d5366004610f11565b610a85565b3480156104e657600080fd5b506102016104f5366004610f2a565b610ab6565b610201610508366004610f11565b610adb565b34801561051957600080fd5b50610233606e81565b34801561052e57600080fd5b50610233607881565b34801561054357600080fd5b5061023362093a8081565b60006001600160e01b03198216637965db0b60e01b148061057f57506301ffc9a760e01b6001600160e01b03198316145b92915050565b600061059081610b79565b6105a86000805160206110ae83398151915283610ab6565b5050565b6000828152602081905260409020600101546105c781610b79565b6105d18383610b83565b50505050565b6001600160a01b03811633146106005760405163334bd91960e11b815260040160405180910390fd5b61060a8282610c15565b505050565b600061057f82610c80565b6000805160206110ae83398151915261063281610b79565b6000836001600160a01b03168360405160006040518083038185875af1925050503d806000811461067f576040519150601f19603f3d011682016040523d82523d6000602084013e610684565b606091505b50509050806106a657604051631d42c86760e21b815260040160405180910390fd5b6040805160008152602081018590526001600160a01b038616917fa92ff919b850e4909ab2261d907ef955f11bc1716733a6cbece38d163a69af8a91015b60405180910390a250505050565b6000805160206110ae83398151915261070a81610b79565b61071e6001600160a01b0384168584610cc8565b604080516001600160a01b038581168252602082018590528616917fa92ff919b850e4909ab2261d907ef955f11bc1716733a6cbece38d163a69af8a91016106e4565b60008060008060007f00000000000000000000000000000000000000000000000000000000000000006001600160a01b031663feaf968c6040518163ffffffff1660e01b815260040160a060405180830381865afa1580156107c7573d6000803e3d6000fd5b505050506040513d601f19601f820116820180604052508101906107eb9190610ffb565b945094505093509350600083136108145760405162bfc92160e01b815260040160405180910390fd5b8160000361083557604051630cd5fa0760e11b815260040160405180910390fd5b62093a806108438342611061565b111561086257604051630cd5fa0760e11b815260040160405180910390fd5b8369ffffffffffffffffffff168169ffffffffffffffffffff16101561089b57604051630cd5fa0760e11b815260040160405180910390fd5b6108a6606484611074565b94505050505090565b60006108ba81610b79565b6105a86000805160206110ae833981519152836105ac565b6000918252602082815260408084206001600160a01b0393909316845291905290205460ff1690565b610903610d27565b806000036109245760405163cd1c886760e01b815260040160405180910390fd5b7f00000000000000000000000000000000000000000000000000000000000000006001600160a01b0316826001600160a01b03161415801561099857507f00000000000000000000000000000000000000000000000000000000000000006001600160a01b0316826001600160a01b031614155b80156109d657507f00000000000000000000000000000000000000000000000000000000000000006001600160a01b0316826001600160a01b031614155b156109f45760405163c1ab6dc160e01b815260040160405180910390fd5b610a096001600160a01b038316333084610d51565b6000610a158383610d8a565b90506000610a2282610c80565b604080516001600160a01b03871681526020810186905290810184905260608101829052909150859033907f8b92ad39508527605b6f5f11d6a11d2a5d78d124a64a043be7f6de5d084952469060800160405180910390a3505061060a60018055565b600080610a90610761565b905080610aa584670de0b6b3a7640000611096565b610aaf9190611074565b9392505050565b600082815260208190526040902060010154610ad181610b79565b6105d18383610c15565b610ae3610d27565b34600003610b045760405163cd1c886760e01b815260040160405180910390fd5b6000610b0f34610de1565b90506000610b1c82610c80565b604080516000815234602082015290810184905260608101829052909150839033907f8b92ad39508527605b6f5f11d6a11d2a5d78d124a64a043be7f6de5d084952469060800160405180910390a35050610b7660018055565b50565b610b768133610e01565b6000610b8f83836108d2565b610c0d576000838152602081815260408083206001600160a01b03861684529091529020805460ff19166001179055610bc53390565b6001600160a01b0316826001600160a01b0316847f2f8788117e7eff1d82e926ec794901d17c78024a50270940304540a733656f0d60405160405180910390a450600161057f565b50600061057f565b6000610c2183836108d2565b15610c0d576000838152602081815260408083206001600160a01b0386168085529252808320805460ff1916905551339286917ff6391f5c32d9c69d2a47ea670b442974b53935d1edc7fd64eb21e047a839171b9190a450600161057f565b600080631dcd65008310610c9657506078610cad565b6305f5e1008310610ca95750606e610cad565b5060645b6305f5e10081610cbe606486611096565b610aa59190611096565b6040516001600160a01b0383811660248301526044820183905261060a91859182169063a9059cbb906064015b604051602081830303815290604052915060e01b6020820180516001600160e01b038381831617835250505050610e3f565b600260015403610d4a57604051633ee5aeb560e01b815260040160405180910390fd5b6002600155565b6040516001600160a01b0384811660248301528381166044830152606482018390526105d19186918216906323b872dd90608401610cf5565b60007f00000000000000000000000000000000000000000000000000000000000000006001600160a01b0316836001600160a01b031603610ddb57610dd464e8d4a5100083611074565b905061057f565b50919050565b600080610dec610761565b9050670de0b6b3a7640000610aa58285611096565b610e0b82826108d2565b6105a85760405163e2517d3f60e01b81526001600160a01b0382166004820152602481018390526044015b60405180910390fd5b600080602060008451602086016000885af180610e62576040513d6000823e3d81fd5b50506000513d91508115610e7a578060011415610e87565b6001600160a01b0384163b155b156105d157604051635274afe760e01b81526001600160a01b0385166004820152602401610e36565b600060208284031215610ec257600080fd5b81356001600160e01b031981168114610aaf57600080fd5b80356001600160a01b0381168114610ef157600080fd5b919050565b600060208284031215610f0857600080fd5b610aaf82610eda565b600060208284031215610f2357600080fd5b5035919050565b60008060408385031215610f3d57600080fd5b82359150610f4d60208401610eda565b90509250929050565b60008060408385031215610f6957600080fd5b610f7283610eda565b946020939093013593505050565b600080600060608486031215610f9557600080fd5b610f9e84610eda565b9250610fac60208501610eda565b9150604084013590509250925092565b600080600060608486031215610fd157600080fd5b83359250610fac60208501610eda565b805169ffffffffffffffffffff81168114610ef157600080fd5b600080600080600060a0868803121561101357600080fd5b61101c86610fe1565b945060208601519350604086015192506060860151915061103f60808701610fe1565b90509295509295909350565b634e487b7160e01b600052601160045260246000fd5b8181038181111561057f5761057f61104b565b60008261109157634e487b7160e01b600052601260045260246000fd5b500490565b808202811582820484141761057f5761057f61104b56fea49807205ce4d355092ef5a8a18f56e8913cf4a201fbe287825b095693c21775a264697066735822122042d56d451706ee9f57e977f379b8ec81c4a1f080f40a5d24a1f2a33b4bebd3ff64736f6c63430008140033","opcodes":"PUSH2 0x100 PUSH1 0x40 MSTORE CALLVALUE DUP1 ISZERO PUSH3 0x12 JUMPI PUSH1 0x0 DUP1 REVERT JUMPDEST POP PUSH1 0x40 MLOAD PUSH3 0x133A CODESIZE SUB DUP1 PUSH3 0x133A DUP4 CODECOPY DUP2 ADD PUSH1 0x40 DUP2 SWAP1 MSTORE PUSH3 0x35 SWAP2 PUSH3 0x16A JUMP JUMPDEST PUSH1 0x1 DUP1 SSTORE PUSH1 0x1 PUSH1 0x1 PUSH1 0xA0 SHL SUB DUP1 DUP7 AND PUSH1 0x80 MSTORE DUP5 DUP2 AND PUSH1 0xA0 MSTORE DUP4 DUP2 AND PUSH1 0xC0 MSTORE DUP3 AND PUSH1 0xE0 MSTORE PUSH3 0x65 PUSH1 0x0 DUP3 PUSH3 0x9E JUMP JUMPDEST POP PUSH3 0x92 PUSH32 0xA49807205CE4D355092EF5A8A18F56E8913CF4A201FBE287825B095693C21775 DUP3 PUSH3 0x9E JUMP JUMPDEST POP POP POP POP POP POP PUSH3 0x1DA JUMP JUMPDEST PUSH1 0x0 DUP3 DUP2 MSTORE PUSH1 0x20 DUP2 DUP2 MSTORE PUSH1 0x40 DUP1 DUP4 KECCAK256 PUSH1 0x1 PUSH1 0x1 PUSH1 0xA0 SHL SUB DUP6 AND DUP5 MSTORE SWAP1 SWAP2 MSTORE DUP2 KECCAK256 SLOAD PUSH1 0xFF AND PUSH3 0x143 JUMPI PUSH1 0x0 DUP4 DUP2 MSTORE PUSH1 0x20 DUP2 DUP2 MSTORE PUSH1 0x40 DUP1 DUP4 KECCAK256 PUSH1 0x1 PUSH1 0x1 PUSH1 0xA0 SHL SUB DUP7 AND DUP5 MSTORE SWAP1 SWAP2 MSTORE SWAP1 KECCAK256 DUP1 SLOAD PUSH1 0xFF NOT AND PUSH1 0x1 OR SWAP1 SSTORE PUSH3 0xFA CALLER SWAP1 JUMP JUMPDEST PUSH1 0x1 PUSH1 0x1 PUSH1 0xA0 SHL SUB AND DUP3 PUSH1 0x1 PUSH1 0x1 PUSH1 0xA0 SHL SUB AND DUP5 PUSH32 0x2F8788117E7EFF1D82E926EC794901D17C78024A50270940304540A733656F0D PUSH1 0x40 MLOAD PUSH1 0x40 MLOAD DUP1 SWAP2 SUB SWAP1 LOG4 POP PUSH1 0x1 PUSH3 0x147 JUMP JUMPDEST POP PUSH1 0x0 JUMPDEST SWAP3 SWAP2 POP POP JUMP JUMPDEST DUP1 MLOAD PUSH1 0x1 PUSH1 0x1 PUSH1 0xA0 SHL SUB DUP2 AND DUP2 EQ PUSH3 0x165 JUMPI PUSH1 0x0 DUP1 REVERT JUMPDEST SWAP2 SWAP1 POP JUMP JUMPDEST PUSH1 0x0 DUP1 PUSH1 0x0 DUP1 PUSH1 0x0 PUSH1 0xA0 DUP7 DUP9 SUB SLT ISZERO PUSH3 0x183 JUMPI PUSH1 0x0 DUP1 REVERT JUMPDEST PUSH3 0x18E DUP7 PUSH3 0x14D JUMP JUMPDEST SWAP5 POP PUSH3 0x19E PUSH1 0x20 DUP8 ADD PUSH3 0x14D JUMP JUMPDEST SWAP4 POP PUSH3 0x1AE PUSH1 0x40 DUP8 ADD PUSH3 0x14D JUMP JUMPDEST SWAP3 POP PUSH3 0x1BE PUSH1 0x60 DUP8 ADD PUSH3 0x14D JUMP JUMPDEST SWAP2 POP PUSH3 0x1CE PUSH1 0x80 DUP8 ADD PUSH3 0x14D JUMP JUMPDEST SWAP1 POP SWAP3 SWAP6 POP SWAP3 SWAP6 SWAP1 SWAP4 POP JUMP JUMPDEST PUSH1 0x80 MLOAD PUSH1 0xA0 MLOAD PUSH1 0xC0 MLOAD PUSH1 0xE0 MLOAD PUSH2 0x1103 PUSH3 0x237 PUSH1 0x0 CODECOPY PUSH1 0x0 DUP2 DUP2 PUSH2 0x39C ADD MSTORE DUP2 DUP2 PUSH2 0x9A1 ADD MSTORE PUSH2 0xD8E ADD MSTORE PUSH1 0x0 DUP2 DUP2 PUSH2 0x273 ADD MSTORE PUSH2 0x963 ADD MSTORE PUSH1 0x0 DUP2 DUP2 PUSH2 0x2DF ADD MSTORE PUSH2 0x926 ADD MSTORE PUSH1 0x0 DUP2 DUP2 PUSH2 0x328 ADD MSTORE PUSH2 0x76B ADD MSTORE PUSH2 0x1103 PUSH1 0x0 RETURN INVALID PUSH1 0x80 PUSH1 0x40 MSTORE PUSH1 0x4 CALLDATASIZE LT PUSH2 0x1A0 JUMPI PUSH1 0x0 CALLDATALOAD PUSH1 0xE0 SHR DUP1 PUSH4 0x67C9B017 GT PUSH2 0xEC JUMPI DUP1 PUSH4 0xBA69C267 GT PUSH2 0x8A JUMPI DUP1 PUSH4 0xD68D9D4E GT PUSH2 0x64 JUMPI DUP1 PUSH4 0xD68D9D4E EQ PUSH2 0x4FA JUMPI DUP1 PUSH4 0xDE805E76 EQ PUSH2 0x50D JUMPI DUP1 PUSH4 0xE77D9E14 EQ PUSH2 0x522 JUMPI DUP1 PUSH4 0xF25B9CAA EQ PUSH2 0x537 JUMPI PUSH1 0x0 DUP1 REVERT JUMPDEST DUP1 PUSH4 0xBA69C267 EQ PUSH2 0x4A2 JUMPI DUP1 PUSH4 0xBCECF667 EQ PUSH2 0x4BA JUMPI DUP1 PUSH4 0xD547741F EQ PUSH2 0x4DA JUMPI PUSH1 0x0 DUP1 REVERT JUMPDEST DUP1 PUSH4 0x7E4008E7 GT PUSH2 0xC6 JUMPI DUP1 PUSH4 0x7E4008E7 EQ PUSH2 0x435 JUMPI DUP1 PUSH4 0x91D14854 EQ PUSH2 0x44D JUMPI DUP1 PUSH4 0x9E9C617B EQ PUSH2 0x46D JUMPI DUP1 PUSH4 0xA217FDDF EQ PUSH2 0x48D JUMPI PUSH1 0x0 DUP1 REVERT JUMPDEST DUP1 PUSH4 0x67C9B017 EQ PUSH2 0x3DE JUMPI DUP1 PUSH4 0x70480275 EQ PUSH2 0x3F3 JUMPI DUP1 PUSH4 0x75B238FC EQ PUSH2 0x413 JUMPI PUSH1 0x0 DUP1 REVERT JUMPDEST DUP1 PUSH4 0x3E413BEE GT PUSH2 0x159 JUMPI DUP1 PUSH4 0x4652CB90 GT PUSH2 0x133 JUMPI DUP1 PUSH4 0x4652CB90 EQ PUSH2 0x34A JUMPI DUP1 PUSH4 0x4782F779 EQ PUSH2 0x36A JUMPI DUP1 PUSH4 0x4CF282FB EQ PUSH2 0x38A JUMPI DUP1 PUSH4 0x5E35359E EQ PUSH2 0x3BE JUMPI PUSH1 0x0 DUP1 REVERT JUMPDEST DUP1 PUSH4 0x3E413BEE EQ PUSH2 0x2CD JUMPI DUP1 PUSH4 0x40D13825 EQ PUSH2 0x301 JUMPI DUP1 PUSH4 0x42F6FB29 EQ PUSH2 0x316 JUMPI PUSH1 0x0 DUP1 REVERT JUMPDEST DUP1 PUSH4 0x1FFC9A7 EQ PUSH2 0x1AC JUMPI DUP1 PUSH4 0x1785F53C EQ PUSH2 0x1E1 JUMPI DUP1 PUSH4 0x248A9CA3 EQ PUSH2 0x203 JUMPI DUP1 PUSH4 0x2F2FF15D EQ PUSH2 0x241 JUMPI DUP1 PUSH4 0x2F48AB7D EQ PUSH2 0x261 JUMPI DUP1 PUSH4 0x36568ABE EQ PUSH2 0x2AD JUMPI PUSH1 0x0 DUP1 REVERT JUMPDEST CALLDATASIZE PUSH2 0x1A7 JUMPI STOP JUMPDEST PUSH1 0x0 DUP1 REVERT JUMPDEST CALLVALUE DUP1 ISZERO PUSH2 0x1B8 JUMPI PUSH1 0x0 DUP1 REVERT JUMPDEST POP PUSH2 0x1CC PUSH2 0x1C7 CALLDATASIZE PUSH1 0x4 PUSH2 0xEB0 JUMP JUMPDEST PUSH2 0x54E JUMP JUMPDEST PUSH1 0x40 MLOAD SWAP1 ISZERO ISZERO DUP2 MSTORE PUSH1 0x20 ADD JUMPDEST PUSH1 0x40 MLOAD DUP1 SWAP2 SUB SWAP1 RETURN JUMPDEST CALLVALUE DUP1 ISZERO PUSH2 0x1ED JUMPI PUSH1 0x0 DUP1 REVERT JUMPDEST POP PUSH2 0x201 PUSH2 0x1FC CALLDATASIZE PUSH1 0x4 PUSH2 0xEF6 JUMP JUMPDEST PUSH2 0x585 JUMP JUMPDEST STOP JUMPDEST CALLVALUE DUP1 ISZERO PUSH2 0x20F JUMPI PUSH1 0x0 DUP1 REVERT JUMPDEST POP PUSH2 0x233 PUSH2 0x21E CALLDATASIZE PUSH1 0x4 PUSH2 0xF11 JUMP JUMPDEST PUSH1 0x0 SWAP1 DUP2 MSTORE PUSH1 0x20 DUP2 SWAP1 MSTORE PUSH1 0x40 SWAP1 KECCAK256 PUSH1 0x1 ADD SLOAD SWAP1 JUMP JUMPDEST PUSH1 0x40 MLOAD SWAP1 DUP2 MSTORE PUSH1 0x20 ADD PUSH2 0x1D8 JUMP JUMPDEST CALLVALUE DUP1 ISZERO PUSH2 0x24D JUMPI PUSH1 0x0 DUP1 REVERT JUMPDEST POP PUSH2 0x201 PUSH2 0x25C CALLDATASIZE PUSH1 0x4 PUSH2 0xF2A JUMP JUMPDEST PUSH2 0x5AC JUMP JUMPDEST CALLVALUE DUP1 ISZERO PUSH2 0x26D JUMPI PUSH1 0x0 DUP1 REVERT JUMPDEST POP PUSH2 0x295 PUSH32 0x0 DUP2 JUMP JUMPDEST PUSH1 0x40 MLOAD PUSH1 0x1 PUSH1 0x1 PUSH1 0xA0 SHL SUB SWAP1 SWAP2 AND DUP2 MSTORE PUSH1 0x20 ADD PUSH2 0x1D8 JUMP JUMPDEST CALLVALUE DUP1 ISZERO PUSH2 0x2B9 JUMPI PUSH1 0x0 DUP1 REVERT JUMPDEST POP PUSH2 0x201 PUSH2 0x2C8 CALLDATASIZE PUSH1 0x4 PUSH2 0xF2A JUMP JUMPDEST PUSH2 0x5D7 JUMP JUMPDEST CALLVALUE DUP1 ISZERO PUSH2 0x2D9 JUMPI PUSH1 0x0 DUP1 REVERT JUMPDEST POP PUSH2 0x295 PUSH32 0x0 DUP2 JUMP JUMPDEST CALLVALUE DUP1 ISZERO PUSH2 0x30D JUMPI PUSH1 0x0 DUP1 REVERT JUMPDEST POP PUSH2 0x233 PUSH1 0x64 DUP2 JUMP JUMPDEST CALLVALUE DUP1 ISZERO PUSH2 0x322 JUMPI PUSH1 0x0 DUP1 REVERT JUMPDEST POP PUSH2 0x295 PUSH32 0x0 DUP2 JUMP JUMPDEST CALLVALUE DUP1 ISZERO PUSH2 0x356 JUMPI PUSH1 0x0 DUP1 REVERT JUMPDEST POP PUSH2 0x233 PUSH2 0x365 CALLDATASIZE PUSH1 0x4 PUSH2 0xF11 JUMP JUMPDEST PUSH2 0x60F JUMP JUMPDEST CALLVALUE DUP1 ISZERO PUSH2 0x376 JUMPI PUSH1 0x0 DUP1 REVERT JUMPDEST POP PUSH2 0x201 PUSH2 0x385 CALLDATASIZE PUSH1 0x4 PUSH2 0xF56 JUMP JUMPDEST PUSH2 0x61A JUMP JUMPDEST CALLVALUE DUP1 ISZERO PUSH2 0x396 JUMPI PUSH1 0x0 DUP1 REVERT JUMPDEST POP PUSH2 0x295 PUSH32 0x0 DUP2 JUMP JUMPDEST CALLVALUE DUP1 ISZERO PUSH2 0x3CA JUMPI PUSH1 0x0 DUP1 REVERT JUMPDEST POP PUSH2 0x201 PUSH2 0x3D9 CALLDATASIZE PUSH1 0x4 PUSH2 0xF80 JUMP JUMPDEST PUSH2 0x6F2 JUMP JUMPDEST CALLVALUE DUP1 ISZERO PUSH2 0x3EA JUMPI PUSH1 0x0 DUP1 REVERT JUMPDEST POP PUSH2 0x233 PUSH2 0x761 JUMP JUMPDEST CALLVALUE DUP1 ISZERO PUSH2 0x3FF JUMPI PUSH1 0x0 DUP1 REVERT JUMPDEST POP PUSH2 0x201 PUSH2 0x40E CALLDATASIZE PUSH1 0x4 PUSH2 0xEF6 JUMP JUMPDEST PUSH2 0x8AF JUMP JUMPDEST CALLVALUE DUP1 ISZERO PUSH2 0x41F JUMPI PUSH1 0x0 DUP1 REVERT JUMPDEST POP PUSH2 0x233 PUSH1 0x0 DUP1 MLOAD PUSH1 0x20 PUSH2 0x10AE DUP4 CODECOPY DUP2 MLOAD SWAP2 MSTORE DUP2 JUMP JUMPDEST CALLVALUE DUP1 ISZERO PUSH2 0x441 JUMPI PUSH1 0x0 DUP1 REVERT JUMPDEST POP PUSH2 0x233 PUSH4 0x1DCD6500 DUP2 JUMP JUMPDEST CALLVALUE DUP1 ISZERO PUSH2 0x459 JUMPI PUSH1 0x0 DUP1 REVERT JUMPDEST POP PUSH2 0x1CC PUSH2 0x468 CALLDATASIZE PUSH1 0x4 PUSH2 0xF2A JUMP JUMPDEST PUSH2 0x8D2 JUMP JUMPDEST CALLVALUE DUP1 ISZERO PUSH2 0x479 JUMPI PUSH1 0x0 DUP1 REVERT JUMPDEST POP PUSH2 0x201 PUSH2 0x488 CALLDATASIZE PUSH1 0x4 PUSH2 0xFBC JUMP JUMPDEST PUSH2 0x8FB JUMP JUMPDEST CALLVALUE DUP1 ISZERO PUSH2 0x499 JUMPI PUSH1 0x0 DUP1 REVERT JUMPDEST POP PUSH2 0x233 PUSH1 0x0 DUP2 JUMP JUMPDEST CALLVALUE DUP1 ISZERO PUSH2 0x4AE JUMPI PUSH1 0x0 DUP1 REVERT JUMPDEST POP PUSH2 0x233 PUSH4 0x5F5E100 DUP2 JUMP JUMPDEST CALLVALUE DUP1 ISZERO PUSH2 0x4C6 JUMPI PUSH1 0x0 DUP1 REVERT JUMPDEST POP PUSH2 0x233 PUSH2 0x4D5 CALLDATASIZE PUSH1 0x4 PUSH2 0xF11 JUMP JUMPDEST PUSH2 0xA85 JUMP JUMPDEST CALLVALUE DUP1 ISZERO PUSH2 0x4E6 JUMPI PUSH1 0x0 DUP1 REVERT JUMPDEST POP PUSH2 0x201 PUSH2 0x4F5 CALLDATASIZE PUSH1 0x4 PUSH2 0xF2A JUMP JUMPDEST PUSH2 0xAB6 JUMP JUMPDEST PUSH2 0x201 PUSH2 0x508 CALLDATASIZE PUSH1 0x4 PUSH2 0xF11 JUMP JUMPDEST PUSH2 0xADB JUMP JUMPDEST CALLVALUE DUP1 ISZERO PUSH2 0x519 JUMPI PUSH1 0x0 DUP1 REVERT JUMPDEST POP PUSH2 0x233 PUSH1 0x6E DUP2 JUMP JUMPDEST CALLVALUE DUP1 ISZERO PUSH2 0x52E JUMPI PUSH1 0x0 DUP1 REVERT JUMPDEST POP PUSH2 0x233 PUSH1 0x78 DUP2 JUMP JUMPDEST CALLVALUE DUP1 ISZERO PUSH2 0x543 JUMPI PUSH1 0x0 DUP1 REVERT JUMPDEST POP PUSH2 0x233 PUSH3 0x93A80 DUP2 JUMP JUMPDEST PUSH1 0x0 PUSH1 0x1 PUSH1 0x1 PUSH1 0xE0 SHL SUB NOT DUP3 AND PUSH4 0x7965DB0B PUSH1 0xE0 SHL EQ DUP1 PUSH2 0x57F JUMPI POP PUSH4 0x1FFC9A7 PUSH1 0xE0 SHL PUSH1 0x1 PUSH1 0x1 PUSH1 0xE0 SHL SUB NOT DUP4 AND EQ JUMPDEST SWAP3 SWAP2 POP POP JUMP JUMPDEST PUSH1 0x0 PUSH2 0x590 DUP2 PUSH2 0xB79 JUMP JUMPDEST PUSH2 0x5A8 PUSH1 0x0 DUP1 MLOAD PUSH1 0x20 PUSH2 0x10AE DUP4 CODECOPY DUP2 MLOAD SWAP2 MSTORE DUP4 PUSH2 0xAB6 JUMP JUMPDEST POP POP JUMP JUMPDEST PUSH1 0x0 DUP3 DUP2 MSTORE PUSH1 0x20 DUP2 SWAP1 MSTORE PUSH1 0x40 SWAP1 KECCAK256 PUSH1 0x1 ADD SLOAD PUSH2 0x5C7 DUP2 PUSH2 0xB79 JUMP JUMPDEST PUSH2 0x5D1 DUP4 DUP4 PUSH2 0xB83 JUMP JUMPDEST POP POP POP POP JUMP JUMPDEST PUSH1 0x1 PUSH1 0x1 PUSH1 0xA0 SHL SUB DUP2 AND CALLER EQ PUSH2 0x600 JUMPI PUSH1 0x40 MLOAD PUSH4 0x334BD919 PUSH1 0xE1 SHL DUP2 MSTORE PUSH1 0x4 ADD PUSH1 0x40 MLOAD DUP1 SWAP2 SUB SWAP1 REVERT JUMPDEST PUSH2 0x60A DUP3 DUP3 PUSH2 0xC15 JUMP JUMPDEST POP POP POP JUMP JUMPDEST PUSH1 0x0 PUSH2 0x57F DUP3 PUSH2 0xC80 JUMP JUMPDEST PUSH1 0x0 DUP1 MLOAD PUSH1 0x20 PUSH2 0x10AE DUP4 CODECOPY DUP2 MLOAD SWAP2 MSTORE PUSH2 0x632 DUP2 PUSH2 0xB79 JUMP JUMPDEST PUSH1 0x0 DUP4 PUSH1 0x1 PUSH1 0x1 PUSH1 0xA0 SHL SUB AND DUP4 PUSH1 0x40 MLOAD PUSH1 0x0 PUSH1 0x40 MLOAD DUP1 DUP4 SUB DUP2 DUP6 DUP8 GAS CALL SWAP3 POP POP POP RETURNDATASIZE DUP1 PUSH1 0x0 DUP2 EQ PUSH2 0x67F JUMPI PUSH1 0x40 MLOAD SWAP2 POP PUSH1 0x1F NOT PUSH1 0x3F RETURNDATASIZE ADD AND DUP3 ADD PUSH1 0x40 MSTORE RETURNDATASIZE DUP3 MSTORE RETURNDATASIZE PUSH1 0x0 PUSH1 0x20 DUP5 ADD RETURNDATACOPY PUSH2 0x684 JUMP JUMPDEST PUSH1 0x60 SWAP2 POP JUMPDEST POP POP SWAP1 POP DUP1 PUSH2 0x6A6 JUMPI PUSH1 0x40 MLOAD PUSH4 0x1D42C867 PUSH1 0xE2 SHL DUP2 MSTORE PUSH1 0x4 ADD PUSH1 0x40 MLOAD DUP1 SWAP2 SUB SWAP1 REVERT JUMPDEST PUSH1 0x40 DUP1 MLOAD PUSH1 0x0 DUP2 MSTORE PUSH1 0x20 DUP2 ADD DUP6 SWAP1 MSTORE PUSH1 0x1 PUSH1 0x1 PUSH1 0xA0 SHL SUB DUP7 AND SWAP2 PUSH32 0xA92FF919B850E4909AB2261D907EF955F11BC1716733A6CBECE38D163A69AF8A SWAP2 ADD JUMPDEST PUSH1 0x40 MLOAD DUP1 SWAP2 SUB SWAP1 LOG2 POP POP POP POP JUMP JUMPDEST PUSH1 0x0 DUP1 MLOAD PUSH1 0x20 PUSH2 0x10AE DUP4 CODECOPY DUP2 MLOAD SWAP2 MSTORE PUSH2 0x70A DUP2 PUSH2 0xB79 JUMP JUMPDEST PUSH2 0x71E PUSH1 0x1 PUSH1 0x1 PUSH1 0xA0 SHL SUB DUP5 AND DUP6 DUP5 PUSH2 0xCC8 JUMP JUMPDEST PUSH1 0x40 DUP1 MLOAD PUSH1 0x1 PUSH1 0x1 PUSH1 0xA0 SHL SUB DUP6 DUP2 AND DUP3 MSTORE PUSH1 0x20 DUP3 ADD DUP6 SWAP1 MSTORE DUP7 AND SWAP2 PUSH32 0xA92FF919B850E4909AB2261D907EF955F11BC1716733A6CBECE38D163A69AF8A SWAP2 ADD PUSH2 0x6E4 JUMP JUMPDEST PUSH1 0x0 DUP1 PUSH1 0x0 DUP1 PUSH1 0x0 PUSH32 0x0 PUSH1 0x1 PUSH1 0x1 PUSH1 0xA0 SHL SUB AND PUSH4 0xFEAF968C PUSH1 0x40 MLOAD DUP2 PUSH4 0xFFFFFFFF AND PUSH1 0xE0 SHL DUP2 MSTORE PUSH1 0x4 ADD PUSH1 0xA0 PUSH1 0x40 MLOAD DUP1 DUP4 SUB DUP2 DUP7 GAS STATICCALL ISZERO DUP1 ISZERO PUSH2 0x7C7 JUMPI RETURNDATASIZE PUSH1 0x0 DUP1 RETURNDATACOPY RETURNDATASIZE PUSH1 0x0 REVERT JUMPDEST POP POP POP POP PUSH1 0x40 MLOAD RETURNDATASIZE PUSH1 0x1F NOT PUSH1 0x1F DUP3 ADD AND DUP3 ADD DUP1 PUSH1 0x40 MSTORE POP DUP2 ADD SWAP1 PUSH2 0x7EB SWAP2 SWAP1 PUSH2 0xFFB JUMP JUMPDEST SWAP5 POP SWAP5 POP POP SWAP4 POP SWAP4 POP PUSH1 0x0 DUP4 SGT PUSH2 0x814 JUMPI PUSH1 0x40 MLOAD PUSH3 0xBFC921 PUSH1 0xE0 SHL DUP2 MSTORE PUSH1 0x4 ADD PUSH1 0x40 MLOAD DUP1 SWAP2 SUB SWAP1 REVERT JUMPDEST DUP2 PUSH1 0x0 SUB PUSH2 0x835 JUMPI PUSH1 0x40 MLOAD PUSH4 0xCD5FA07 PUSH1 0xE1 SHL DUP2 MSTORE PUSH1 0x4 ADD PUSH1 0x40 MLOAD DUP1 SWAP2 SUB SWAP1 REVERT JUMPDEST PUSH3 0x93A80 PUSH2 0x843 DUP4 TIMESTAMP PUSH2 0x1061 JUMP JUMPDEST GT ISZERO PUSH2 0x862 JUMPI PUSH1 0x40 MLOAD PUSH4 0xCD5FA07 PUSH1 0xE1 SHL DUP2 MSTORE PUSH1 0x4 ADD PUSH1 0x40 MLOAD DUP1 SWAP2 SUB SWAP1 REVERT JUMPDEST DUP4 PUSH10 0xFFFFFFFFFFFFFFFFFFFF AND DUP2 PUSH10 0xFFFFFFFFFFFFFFFFFFFF AND LT ISZERO PUSH2 0x89B JUMPI PUSH1 0x40 MLOAD PUSH4 0xCD5FA07 PUSH1 0xE1 SHL DUP2 MSTORE PUSH1 0x4 ADD PUSH1 0x40 MLOAD DUP1 SWAP2 SUB SWAP1 REVERT JUMPDEST PUSH2 0x8A6 PUSH1 0x64 DUP5 PUSH2 0x1074 JUMP JUMPDEST SWAP5 POP POP POP POP POP SWAP1 JUMP JUMPDEST PUSH1 0x0 PUSH2 0x8BA DUP2 PUSH2 0xB79 JUMP JUMPDEST PUSH2 0x5A8 PUSH1 0x0 DUP1 MLOAD PUSH1 0x20 PUSH2 0x10AE DUP4 CODECOPY DUP2 MLOAD SWAP2 MSTORE DUP4 PUSH2 0x5AC JUMP JUMPDEST PUSH1 0x0 SWAP2 DUP3 MSTORE PUSH1 0x20 DUP3 DUP2 MSTORE PUSH1 0x40 DUP1 DUP5 KECCAK256 PUSH1 0x1 PUSH1 0x1 PUSH1 0xA0 SHL SUB SWAP4 SWAP1 SWAP4 AND DUP5 MSTORE SWAP2 SWAP1 MSTORE SWAP1 KECCAK256 SLOAD PUSH1 0xFF AND SWAP1 JUMP JUMPDEST PUSH2 0x903 PUSH2 0xD27 JUMP JUMPDEST DUP1 PUSH1 0x0 SUB PUSH2 0x924 JUMPI PUSH1 0x40 MLOAD PUSH4 0xCD1C8867 PUSH1 0xE0 SHL DUP2 MSTORE PUSH1 0x4 ADD PUSH1 0x40 MLOAD DUP1 SWAP2 SUB SWAP1 REVERT JUMPDEST PUSH32 0x0 PUSH1 0x1 PUSH1 0x1 PUSH1 0xA0 SHL SUB AND DUP3 PUSH1 0x1 PUSH1 0x1 PUSH1 0xA0 SHL SUB AND EQ ISZERO DUP1 ISZERO PUSH2 0x998 JUMPI POP PUSH32 0x0 PUSH1 0x1 PUSH1 0x1 PUSH1 0xA0 SHL SUB AND DUP3 PUSH1 0x1 PUSH1 0x1 PUSH1 0xA0 SHL SUB AND EQ ISZERO JUMPDEST DUP1 ISZERO PUSH2 0x9D6 JUMPI POP PUSH32 0x0 PUSH1 0x1 PUSH1 0x1 PUSH1 0xA0 SHL SUB AND DUP3 PUSH1 0x1 PUSH1 0x1 PUSH1 0xA0 SHL SUB AND EQ ISZERO JUMPDEST ISZERO PUSH2 0x9F4 JUMPI PUSH1 0x40 MLOAD PUSH4 0xC1AB6DC1 PUSH1 0xE0 SHL DUP2 MSTORE PUSH1 0x4 ADD PUSH1 0x40 MLOAD DUP1 SWAP2 SUB SWAP1 REVERT JUMPDEST PUSH2 0xA09 PUSH1 0x1 PUSH1 0x1 PUSH1 0xA0 SHL SUB DUP4 AND CALLER ADDRESS DUP5 PUSH2 0xD51 JUMP JUMPDEST PUSH1 0x0 PUSH2 0xA15 DUP4 DUP4 PUSH2 0xD8A JUMP JUMPDEST SWAP1 POP PUSH1 0x0 PUSH2 0xA22 DUP3 PUSH2 0xC80 JUMP JUMPDEST PUSH1 0x40 DUP1 MLOAD PUSH1 0x1 PUSH1 0x1 PUSH1 0xA0 SHL SUB DUP8 AND DUP2 MSTORE PUSH1 0x20 DUP2 ADD DUP7 SWAP1 MSTORE SWAP1 DUP2 ADD DUP5 SWAP1 MSTORE PUSH1 0x60 DUP2 ADD DUP3 SWAP1 MSTORE SWAP1 SWAP2 POP DUP6 SWAP1 CALLER SWAP1 PUSH32 0x8B92AD39508527605B6F5F11D6A11D2A5D78D124A64A043BE7F6DE5D08495246 SWAP1 PUSH1 0x80 ADD PUSH1 0x40 MLOAD DUP1 SWAP2 SUB SWAP1 LOG3 POP POP PUSH2 0x60A PUSH1 0x1 DUP1 SSTORE JUMP JUMPDEST PUSH1 0x0 DUP1 PUSH2 0xA90 PUSH2 0x761 JUMP JUMPDEST SWAP1 POP DUP1 PUSH2 0xAA5 DUP5 PUSH8 0xDE0B6B3A7640000 PUSH2 0x1096 JUMP JUMPDEST PUSH2 0xAAF SWAP2 SWAP1 PUSH2 0x1074 JUMP JUMPDEST SWAP4 SWAP3 POP POP POP JUMP JUMPDEST PUSH1 0x0 DUP3 DUP2 MSTORE PUSH1 0x20 DUP2 SWAP1 MSTORE PUSH1 0x40 SWAP1 KECCAK256 PUSH1 0x1 ADD SLOAD PUSH2 0xAD1 DUP2 PUSH2 0xB79 JUMP JUMPDEST PUSH2 0x5D1 DUP4 DUP4 PUSH2 0xC15 JUMP JUMPDEST PUSH2 0xAE3 PUSH2 0xD27 JUMP JUMPDEST CALLVALUE PUSH1 0x0 SUB PUSH2 0xB04 JUMPI PUSH1 0x40 MLOAD PUSH4 0xCD1C8867 PUSH1 0xE0 SHL DUP2 MSTORE PUSH1 0x4 ADD PUSH1 0x40 MLOAD DUP1 SWAP2 SUB SWAP1 REVERT JUMPDEST PUSH1 0x0 PUSH2 0xB0F CALLVALUE PUSH2 0xDE1 JUMP JUMPDEST SWAP1 POP PUSH1 0x0 PUSH2 0xB1C DUP3 PUSH2 0xC80 JUMP JUMPDEST PUSH1 0x40 DUP1 MLOAD PUSH1 0x0 DUP2 MSTORE CALLVALUE PUSH1 0x20 DUP3 ADD MSTORE SWAP1 DUP2 ADD DUP5 SWAP1 MSTORE PUSH1 0x60 DUP2 ADD DUP3 SWAP1 MSTORE SWAP1 SWAP2 POP DUP4 SWAP1 CALLER SWAP1 PUSH32 0x8B92AD39508527605B6F5F11D6A11D2A5D78D124A64A043BE7F6DE5D08495246 SWAP1 PUSH1 0x80 ADD PUSH1 0x40 MLOAD DUP1 SWAP2 SUB SWAP1 LOG3 POP POP PUSH2 0xB76 PUSH1 0x1 DUP1 SSTORE JUMP JUMPDEST POP JUMP JUMPDEST PUSH2 0xB76 DUP2 CALLER PUSH2 0xE01 JUMP JUMPDEST PUSH1 0x0 PUSH2 0xB8F DUP4 DUP4 PUSH2 0x8D2 JUMP JUMPDEST PUSH2 0xC0D JUMPI PUSH1 0x0 DUP4 DUP2 MSTORE PUSH1 0x20 DUP2 DUP2 MSTORE PUSH1 0x40 DUP1 DUP4 KECCAK256 PUSH1 0x1 PUSH1 0x1 PUSH1 0xA0 SHL SUB DUP7 AND DUP5 MSTORE SWAP1 SWAP2 MSTORE SWAP1 KECCAK256 DUP1 SLOAD PUSH1 0xFF NOT AND PUSH1 0x1 OR SWAP1 SSTORE PUSH2 0xBC5 CALLER SWAP1 JUMP JUMPDEST PUSH1 0x1 PUSH1 0x1 PUSH1 0xA0 SHL SUB AND DUP3 PUSH1 0x1 PUSH1 0x1 PUSH1 0xA0 SHL SUB AND DUP5 PUSH32 0x2F8788117E7EFF1D82E926EC794901D17C78024A50270940304540A733656F0D PUSH1 0x40 MLOAD PUSH1 0x40 MLOAD DUP1 SWAP2 SUB SWAP1 LOG4 POP PUSH1 0x1 PUSH2 0x57F JUMP JUMPDEST POP PUSH1 0x0 PUSH2 0x57F JUMP JUMPDEST PUSH1 0x0 PUSH2 0xC21 DUP4 DUP4 PUSH2 0x8D2 JUMP JUMPDEST ISZERO PUSH2 0xC0D JUMPI PUSH1 0x0 DUP4 DUP2 MSTORE PUSH1 0x20 DUP2 DUP2 MSTORE PUSH1 0x40 DUP1 DUP4 KECCAK256 PUSH1 0x1 PUSH1 0x1 PUSH1 0xA0 SHL SUB DUP7 AND DUP1 DUP6 MSTORE SWAP3 MSTORE DUP1 DUP4 KECCAK256 DUP1 SLOAD PUSH1 0xFF NOT AND SWAP1 SSTORE MLOAD CALLER SWAP3 DUP7 SWAP2 PUSH32 0xF6391F5C32D9C69D2A47EA670B442974B53935D1EDC7FD64EB21E047A839171B SWAP2 SWAP1 LOG4 POP PUSH1 0x1 PUSH2 0x57F JUMP JUMPDEST PUSH1 0x0 DUP1 PUSH4 0x1DCD6500 DUP4 LT PUSH2 0xC96 JUMPI POP PUSH1 0x78 PUSH2 0xCAD JUMP JUMPDEST PUSH4 0x5F5E100 DUP4 LT PUSH2 0xCA9 JUMPI POP PUSH1 0x6E PUSH2 0xCAD JUMP JUMPDEST POP PUSH1 0x64 JUMPDEST PUSH4 0x5F5E100 DUP2 PUSH2 0xCBE PUSH1 0x64 DUP7 PUSH2 0x1096 JUMP JUMPDEST PUSH2 0xAA5 SWAP2 SWAP1 PUSH2 0x1096 JUMP JUMPDEST PUSH1 0x40 MLOAD PUSH1 0x1 PUSH1 0x1 PUSH1 0xA0 SHL SUB DUP4 DUP2 AND PUSH1 0x24 DUP4 ADD MSTORE PUSH1 0x44 DUP3 ADD DUP4 SWAP1 MSTORE PUSH2 0x60A SWAP2 DUP6 SWAP2 DUP3 AND SWAP1 PUSH4 0xA9059CBB SWAP1 PUSH1 0x64 ADD JUMPDEST PUSH1 0x40 MLOAD PUSH1 0x20 DUP2 DUP4 SUB SUB DUP2 MSTORE SWAP1 PUSH1 0x40 MSTORE SWAP2 POP PUSH1 0xE0 SHL PUSH1 0x20 DUP3 ADD DUP1 MLOAD PUSH1 0x1 PUSH1 0x1 PUSH1 0xE0 SHL SUB DUP4 DUP2 DUP4 AND OR DUP4 MSTORE POP POP POP POP PUSH2 0xE3F JUMP JUMPDEST PUSH1 0x2 PUSH1 0x1 SLOAD SUB PUSH2 0xD4A JUMPI PUSH1 0x40 MLOAD PUSH4 0x3EE5AEB5 PUSH1 0xE0 SHL DUP2 MSTORE PUSH1 0x4 ADD PUSH1 0x40 MLOAD DUP1 SWAP2 SUB SWAP1 REVERT JUMPDEST PUSH1 0x2 PUSH1 0x1 SSTORE JUMP JUMPDEST PUSH1 0x40 MLOAD PUSH1 0x1 PUSH1 0x1 PUSH1 0xA0 SHL SUB DUP5 DUP2 AND PUSH1 0x24 DUP4 ADD MSTORE DUP4 DUP2 AND PUSH1 0x44 DUP4 ADD MSTORE PUSH1 0x64 DUP3 ADD DUP4 SWAP1 MSTORE PUSH2 0x5D1 SWAP2 DUP7 SWAP2 DUP3 AND SWAP1 PUSH4 0x23B872DD SWAP1 PUSH1 0x84 ADD PUSH2 0xCF5 JUMP JUMPDEST PUSH1 0x0 PUSH32 0x0 PUSH1 0x1 PUSH1 0x1 PUSH1 0xA0 SHL SUB AND DUP4 PUSH1 0x1 PUSH1 0x1 PUSH1 0xA0 SHL SUB AND SUB PUSH2 0xDDB JUMPI PUSH2 0xDD4 PUSH5 0xE8D4A51000 DUP4 PUSH2 0x1074 JUMP JUMPDEST SWAP1 POP PUSH2 0x57F JUMP JUMPDEST POP SWAP2 SWAP1 POP JUMP JUMPDEST PUSH1 0x0 DUP1 PUSH2 0xDEC PUSH2 0x761 JUMP JUMPDEST SWAP1 POP PUSH8 0xDE0B6B3A7640000 PUSH2 0xAA5 DUP3 DUP6 PUSH2 0x1096 JUMP JUMPDEST PUSH2 0xE0B DUP3 DUP3 PUSH2 0x8D2 JUMP JUMPDEST PUSH2 0x5A8 JUMPI PUSH1 0x40 MLOAD PUSH4 0xE2517D3F PUSH1 0xE0 SHL DUP2 MSTORE PUSH1 0x1 PUSH1 0x1 PUSH1 0xA0 SHL SUB DUP3 AND PUSH1 0x4 DUP3 ADD MSTORE PUSH1 0x24 DUP2 ADD DUP4 SWAP1 MSTORE PUSH1 0x44 ADD JUMPDEST PUSH1 0x40 MLOAD DUP1 SWAP2 SUB SWAP1 REVERT JUMPDEST PUSH1 0x0 DUP1 PUSH1 0x20 PUSH1 0x0 DUP5 MLOAD PUSH1 0x20 DUP7 ADD PUSH1 0x0 DUP9 GAS CALL DUP1 PUSH2 0xE62 JUMPI PUSH1 0x40 MLOAD RETURNDATASIZE PUSH1 0x0 DUP3 RETURNDATACOPY RETURNDATASIZE DUP2 REVERT JUMPDEST POP POP PUSH1 0x0 MLOAD RETURNDATASIZE SWAP2 POP DUP2 ISZERO PUSH2 0xE7A JUMPI DUP1 PUSH1 0x1 EQ ISZERO PUSH2 0xE87 JUMP JUMPDEST PUSH1 0x1 PUSH1 0x1 PUSH1 0xA0 SHL SUB DUP5 AND EXTCODESIZE ISZERO JUMPDEST ISZERO PUSH2 0x5D1 JUMPI PUSH1 0x40 MLOAD PUSH4 0x5274AFE7 PUSH1 0xE0 SHL DUP2 MSTORE PUSH1 0x1 PUSH1 0x1 PUSH1 0xA0 SHL SUB DUP6 AND PUSH1 0x4 DUP3 ADD MSTORE PUSH1 0x24 ADD PUSH2 0xE36 JUMP JUMPDEST PUSH1 0x0 PUSH1 0x20 DUP3 DUP5 SUB SLT ISZERO PUSH2 0xEC2 JUMPI PUSH1 0x0 DUP1 REVERT JUMPDEST DUP2 CALLDATALOAD PUSH1 0x1 PUSH1 0x1 PUSH1 0xE0 SHL SUB NOT DUP2 AND DUP2 EQ PUSH2 0xAAF JUMPI PUSH1 0x0 DUP1 REVERT JUMPDEST DUP1 CALLDATALOAD PUSH1 0x1 PUSH1 0x1 PUSH1 0xA0 SHL SUB DUP2 AND DUP2 EQ PUSH2 0xEF1 JUMPI PUSH1 0x0 DUP1 REVERT JUMPDEST SWAP2 SWAP1 POP JUMP JUMPDEST PUSH1 0x0 PUSH1 0x20 DUP3 DUP5 SUB SLT ISZERO PUSH2 0xF08 JUMPI PUSH1 0x0 DUP1 REVERT JUMPDEST PUSH2 0xAAF DUP3 PUSH2 0xEDA JUMP JUMPDEST PUSH1 0x0 PUSH1 0x20 DUP3 DUP5 SUB SLT ISZERO PUSH2 0xF23 JUMPI PUSH1 0x0 DUP1 REVERT JUMPDEST POP CALLDATALOAD SWAP2 SWAP1 POP JUMP JUMPDEST PUSH1 0x0 DUP1 PUSH1 0x40 DUP4 DUP6 SUB SLT ISZERO PUSH2 0xF3D JUMPI PUSH1 0x0 DUP1 REVERT JUMPDEST DUP3 CALLDATALOAD SWAP2 POP PUSH2 0xF4D PUSH1 0x20 DUP5 ADD PUSH2 0xEDA JUMP JUMPDEST SWAP1 POP SWAP3 POP SWAP3 SWAP1 POP JUMP JUMPDEST PUSH1 0x0 DUP1 PUSH1 0x40 DUP4 DUP6 SUB SLT ISZERO PUSH2 0xF69 JUMPI PUSH1 0x0 DUP1 REVERT JUMPDEST PUSH2 0xF72 DUP4 PUSH2 0xEDA JUMP JUMPDEST SWAP5 PUSH1 0x20 SWAP4 SWAP1 SWAP4 ADD CALLDATALOAD SWAP4 POP POP POP JUMP JUMPDEST PUSH1 0x0 DUP1 PUSH1 0x0 PUSH1 0x60 DUP5 DUP7 SUB SLT ISZERO PUSH2 0xF95 JUMPI PUSH1 0x0 DUP1 REVERT JUMPDEST PUSH2 0xF9E DUP5 PUSH2 0xEDA JUMP JUMPDEST SWAP3 POP PUSH2 0xFAC PUSH1 0x20 DUP6 ADD PUSH2 0xEDA JUMP JUMPDEST SWAP2 POP PUSH1 0x40 DUP5 ADD CALLDATALOAD SWAP1 POP SWAP3 POP SWAP3 POP SWAP3 JUMP JUMPDEST PUSH1 0x0 DUP1 PUSH1 0x0 PUSH1 0x60 DUP5 DUP7 SUB SLT ISZERO PUSH2 0xFD1 JUMPI PUSH1 0x0 DUP1 REVERT JUMPDEST DUP4 CALLDATALOAD SWAP3 POP PUSH2 0xFAC PUSH1 0x20 DUP6 ADD PUSH2 0xEDA JUMP JUMPDEST DUP1 MLOAD PUSH10 0xFFFFFFFFFFFFFFFFFFFF DUP2 AND DUP2 EQ PUSH2 0xEF1 JUMPI PUSH1 0x0 DUP1 REVERT JUMPDEST PUSH1 0x0 DUP1 PUSH1 0x0 DUP1 PUSH1 0x0 PUSH1 0xA0 DUP7 DUP9 SUB SLT ISZERO PUSH2 0x1013 JUMPI PUSH1 0x0 DUP1 REVERT JUMPDEST PUSH2 0x101C DUP7 PUSH2 0xFE1 JUMP JUMPDEST SWAP5 POP PUSH1 0x20 DUP7 ADD MLOAD SWAP4 POP PUSH1 0x40 DUP7 ADD MLOAD SWAP3 POP PUSH1 0x60 DUP7 ADD MLOAD SWAP2 POP PUSH2 0x103F PUSH1 0x80 DUP8 ADD PUSH2 0xFE1 JUMP JUMPDEST SWAP1 POP SWAP3 SWAP6 POP SWAP3 SWAP6 SWAP1 SWAP4 POP JUMP JUMPDEST PUSH4 0x4E487B71 PUSH1 0xE0 SHL PUSH1 0x0 MSTORE PUSH1 0x11 PUSH1 0x4 MSTORE PUSH1 0x24 PUSH1 0x0 REVERT JUMPDEST DUP2 DUP2 SUB DUP2 DUP2 GT ISZERO PUSH2 0x57F JUMPI PUSH2 0x57F PUSH2 0x104B JUMP JUMPDEST PUSH1 0x0 DUP3 PUSH2 0x1091 JUMPI PUSH4 0x4E487B71 PUSH1 0xE0 SHL PUSH1 0x0 MSTORE PUSH1 0x12 PUSH1 0x4 MSTORE PUSH1 0x24 PUSH1 0x0 REVERT JUMPDEST POP DIV SWAP1 JUMP JUMPDEST DUP1 DUP3 MUL DUP2 ISZERO DUP3 DUP3 DIV DUP5 EQ OR PUSH2 0x57F JUMPI PUSH2 0x57F PUSH2 0x104B JUMP INVALID LOG4 SWAP9 SMOD KECCAK256 0x5C 0xE4 0xD3 SSTORE MULMOD 0x2E CREATE2 0xA8 LOG1 DUP16 JUMP 0xE8 SWAP2 EXTCODECOPY DELEGATECALL LOG2 ADD 0xFB 0xE2 DUP8 DUP3 JUMPDEST MULMOD JUMP SWAP4 0xC2 OR PUSH22 0xA264697066735822122042D56D451706EE9F57E977F3 PUSH26 0xB8EC81C4A1F080F40A5D24A1F2A33B4BEBD3FF64736F6C634300 ADDMOD EQ STOP CALLER "},"methodIdentifiers":{"ADMIN_ROLE()":"75b238fc","BONUS_PERCENT_1()":"de805e76","BONUS_PERCENT_2()":"e77d9e14","BONUS_THRESHOLD_1()":"ba69c267","BONUS_THRESHOLD_2()":"7e4008e7","CREDITS_PER_DOLLAR()":"40d13825","DEFAULT_ADMIN_ROLE()":"a217fddf","PRICE_STALENESS_THRESHOLD()":"f25b9caa","addAdmin(address)":"70480275","calculateCredits(uint256)":"4652cb90","depositETH(bytes32)":"d68d9d4e","depositStable(bytes32,address,uint256)":"9e9c617b","ethUsdPriceFeed()":"42f6fb29","getEthPrice()":"67c9b017","getRoleAdmin(bytes32)":"248a9ca3","grantRole(bytes32,address)":"2f2ff15d","hasRole(bytes32,address)":"91d14854","removeAdmin(address)":"1785f53c","renounceRole(bytes32,address)":"36568abe","revokeRole(bytes32,address)":"d547741f","supportsInterface(bytes4)":"01ffc9a7","usdToEth(uint256)":"bcecf667","usdc()":"3e413bee","usds()":"4cf282fb","usdt()":"2f48ab7d","withdrawETH(address,uint256)":"4782f779","withdrawTokens(address,address,uint256)":"5e35359e"}}}}}